{
  "contractName": "ChainList",
  "abi": [
    {
      "inputs": [],
      "payable": false,
      "stateMutability": "nonpayable",
      "type": "constructor",
      "signature": "constructor"
    },
    {
      "constant": false,
      "inputs": [
        {
          "name": "_name",
          "type": "string"
        },
        {
          "name": "_description",
          "type": "string"
        },
        {
          "name": "_price",
          "type": "uint256"
        }
      ],
      "name": "sellArticle",
      "outputs": [],
      "payable": false,
      "stateMutability": "nonpayable",
      "type": "function",
      "signature": "0xd2609515"
    },
    {
      "constant": true,
      "inputs": [],
      "name": "getArticle",
      "outputs": [
        {
          "name": "_seller",
          "type": "address"
        },
        {
          "name": "_name",
          "type": "string"
        },
        {
          "name": "_description",
          "type": "string"
        },
        {
          "name": "_price",
          "type": "uint256"
        }
      ],
      "payable": false,
      "stateMutability": "view",
      "type": "function",
      "signature": "0xc37218a6"
    }
  ],
  "bytecode": "0x608060405234801561001057600080fd5b506100c46040805190810160405280600f81526020017f44656661756c742061727469636c650000000000000000000000000000000000815250606060405190810160405280602181526020017f5468697320697320616e2061727469636c65207365742062792064656661756c81526020017f7400000000000000000000000000000000000000000000000000000000000000815250670de0b6b3a76400006100c9640100000000026401000000009004565b6101e8565b336000806101000a81548173ffffffffffffffffffffffffffffffffffffffff021916908373ffffffffffffffffffffffffffffffffffffffff160217905550826001908051906020019061011f929190610143565b508160029080519060200190610136929190610143565b5080600381905550505050565b828054600181600116156101000203166002900490600052602060002090601f016020900481019282601f1061018457805160ff19168380011785556101b2565b828001600101855582156101b2579182015b828111156101b1578251825591602001919060010190610196565b5b5090506101bf91906101c3565b5090565b6101e591905b808211156101e15760008160009055506001016101c9565b5090565b90565b6105b1806101f76000396000f3fe60806040526004361061004c576000357c0100000000000000000000000000000000000000000000000000000000900463ffffffff168063c37218a614610051578063d260951514610187575b600080fd5b34801561005d57600080fd5b506100666102f0565b604051808573ffffffffffffffffffffffffffffffffffffffff1673ffffffffffffffffffffffffffffffffffffffff1681526020018060200180602001848152602001838103835286818151815260200191508051906020019080838360005b838110156100e25780820151818401526020810190506100c7565b50505050905090810190601f16801561010f5780820380516001836020036101000a031916815260200191505b50838103825285818151815260200191508051906020019080838360005b8381101561014857808201518184015260208101905061012d565b50505050905090810190601f1680156101755780820380516001836020036101000a031916815260200191505b50965050505050505060405180910390f35b34801561019357600080fd5b506102ee600480360360608110156101aa57600080fd5b81019080803590602001906401000000008111156101c757600080fd5b8201836020820111156101d957600080fd5b803590602001918460018302840111640100000000831117156101fb57600080fd5b91908080601f016020809104026020016040519081016040528093929190818152602001838380828437600081840152601f19601f8201169050808301925050505050505091929192908035906020019064010000000081111561025e57600080fd5b82018360208201111561027057600080fd5b8035906020019184600183028401116401000000008311171561029257600080fd5b91908080601f016020809104026020016040519081016040528093929190818152602001838380828437600081840152601f19601f82011690508083019250505050505050919291929080359060200190929190505050610466565b005b600060608060008060009054906101000a900473ffffffffffffffffffffffffffffffffffffffff1660016002600354828054600181600116156101000203166002900480601f0160208091040260200160405190810160405280929190818152602001828054600181600116156101000203166002900480156103b55780601f1061038a576101008083540402835291602001916103b5565b820191906000526020600020905b81548152906001019060200180831161039857829003601f168201915b50505050509250818054600181600116156101000203166002900480601f0160208091040260200160405190810160405280929190818152602001828054600181600116156101000203166002900480156104515780601f1061042657610100808354040283529160200191610451565b820191906000526020600020905b81548152906001019060200180831161043457829003601f168201915b50505050509150935093509350935090919293565b336000806101000a81548173ffffffffffffffffffffffffffffffffffffffff021916908373ffffffffffffffffffffffffffffffffffffffff16021790555082600190805190602001906104bc9291906104e0565b5081600290805190602001906104d39291906104e0565b5080600381905550505050565b828054600181600116156101000203166002900490600052602060002090601f016020900481019282601f1061052157805160ff191683800117855561054f565b8280016001018555821561054f579182015b8281111561054e578251825591602001919060010190610533565b5b50905061055c9190610560565b5090565b61058291905b8082111561057e576000816000905550600101610566565b5090565b9056fea165627a7a723058207a636b9314f27446156d4422de01fb69ccd688367950475d4ecae0bc2913f5fc0029",
  "source": "pragma solidity >=0.4.21 <0.6.0;\n\ncontract ChainList {\n    // state variables\n    address seller;\n    string name;\n    string description;\n    uint256 price;\n\n    // constructor\n    constructor() public {\n        sellArticle(\"Default article\", \"This is an article set by default\", 1000000000000000000);\n    }\n\n    // sell an article\n    function sellArticle(string memory _name, string memory _description, uint256 _price) public {\n        seller = msg.sender;\n        name = _name;\n        description = _description;\n        price = _price;\n    }\n\n    // get an article\n    function getArticle() public view returns (\n        address _seller,\n        string memory _name,\n        string memory _description,\n        uint256 _price\n    ) {\n        return(seller, name, description, price);\n    }\n}",
  "sourcePath": "/Users/AbdullahNaveed/Projects/HealthChain-Frontend/contracts/ChainList.sol",
  "compiler": {
    "name": "solc",
    "version": "0.5.0+commit.1d4f565a.Emscripten.clang"
  },
  "schemaVersion": "3.0.1",
  "updatedAt": "2019-01-17T17:59:40.273Z",
  "devdoc": {
    "methods": {}
  },
  "userdoc": {
    "methods": {}
  }
}